{
  "address": "0xDd1cEa07F84bd4f4e6F4B7F27378B37fbFCEB685",
  "abi": [
    {
      "inputs": [
        {
          "internalType": "contract IERC20",
          "name": "_usdc",
          "type": "address"
        },
        {
          "internalType": "contract IVehicleRegistry",
          "name": "_vehicleRegistry",
          "type": "address"
        },
        {
          "internalType": "contract IChargerRegistry",
          "name": "_chargerRegistry",
          "type": "address"
        },
        {
          "internalType": "uint256",
          "name": "_minDeposit",
          "type": "uint256"
        },
        {
          "internalType": "uint256",
          "name": "_maxDeposit",
          "type": "uint256"
        },
        {
          "internalType": "uint256",
          "name": "_refundTimeout",
          "type": "uint256"
        },
        {
          "internalType": "address",
          "name": "initialOwner",
          "type": "address"
        }
      ],
      "stateMutability": "nonpayable",
      "type": "constructor"
    },
    {
      "inputs": [
        {
          "internalType": "address",
          "name": "target",
          "type": "address"
        }
      ],
      "name": "AddressEmptyCode",
      "type": "error"
    },
    {
      "inputs": [
        {
          "internalType": "address",
          "name": "account",
          "type": "address"
        }
      ],
      "name": "AddressInsufficientBalance",
      "type": "error"
    },
    {
      "inputs": [],
      "name": "ECDSAInvalidSignature",
      "type": "error"
    },
    {
      "inputs": [
        {
          "internalType": "uint256",
          "name": "length",
          "type": "uint256"
        }
      ],
      "name": "ECDSAInvalidSignatureLength",
      "type": "error"
    },
    {
      "inputs": [
        {
          "internalType": "bytes32",
          "name": "s",
          "type": "bytes32"
        }
      ],
      "name": "ECDSAInvalidSignatureS",
      "type": "error"
    },
    {
      "inputs": [],
      "name": "ErrBadSignature",
      "type": "error"
    },
    {
      "inputs": [],
      "name": "ErrInsufficientReserve",
      "type": "error"
    },
    {
      "inputs": [],
      "name": "ErrInvalidCommitment",
      "type": "error"
    },
    {
      "inputs": [],
      "name": "ErrNotChargerOwner",
      "type": "error"
    },
    {
      "inputs": [],
      "name": "ErrNotDriver",
      "type": "error"
    },
    {
      "inputs": [],
      "name": "ErrNotOwner",
      "type": "error"
    },
    {
      "inputs": [],
      "name": "ErrNotRegistered",
      "type": "error"
    },
    {
      "inputs": [],
      "name": "ErrNotTrusted",
      "type": "error"
    },
    {
      "inputs": [],
      "name": "ErrOutOfBounds",
      "type": "error"
    },
    {
      "inputs": [],
      "name": "ErrTokenTransfer",
      "type": "error"
    },
    {
      "inputs": [],
      "name": "ErrTooSoon",
      "type": "error"
    },
    {
      "inputs": [],
      "name": "ErrWrongState",
      "type": "error"
    },
    {
      "inputs": [],
      "name": "FailedInnerCall",
      "type": "error"
    },
    {
      "inputs": [],
      "name": "InvalidShortString",
      "type": "error"
    },
    {
      "inputs": [
        {
          "internalType": "address",
          "name": "owner",
          "type": "address"
        }
      ],
      "name": "OwnableInvalidOwner",
      "type": "error"
    },
    {
      "inputs": [
        {
          "internalType": "address",
          "name": "account",
          "type": "address"
        }
      ],
      "name": "OwnableUnauthorizedAccount",
      "type": "error"
    },
    {
      "inputs": [],
      "name": "ReentrancyGuardReentrantCall",
      "type": "error"
    },
    {
      "inputs": [
        {
          "internalType": "address",
          "name": "token",
          "type": "address"
        }
      ],
      "name": "SafeERC20FailedOperation",
      "type": "error"
    },
    {
      "inputs": [
        {
          "internalType": "string",
          "name": "str",
          "type": "string"
        }
      ],
      "name": "StringTooLong",
      "type": "error"
    },
    {
      "anonymous": false,
      "inputs": [
        {
          "indexed": true,
          "internalType": "uint256",
          "name": "sessionId",
          "type": "uint256"
        },
        {
          "indexed": false,
          "internalType": "uint256",
          "name": "amount",
          "type": "uint256"
        }
      ],
      "name": "ChargeProposed",
      "type": "event"
    },
    {
      "anonymous": false,
      "inputs": [
        {
          "indexed": true,
          "internalType": "uint256",
          "name": "sessionId",
          "type": "uint256"
        },
        {
          "indexed": false,
          "internalType": "uint256",
          "name": "amount",
          "type": "uint256"
        }
      ],
      "name": "DepositAdded",
      "type": "event"
    },
    {
      "anonymous": false,
      "inputs": [
        {
          "indexed": true,
          "internalType": "uint256",
          "name": "sessionId",
          "type": "uint256"
        },
        {
          "indexed": false,
          "internalType": "bytes32",
          "name": "reasonHash",
          "type": "bytes32"
        }
      ],
      "name": "Disputed",
      "type": "event"
    },
    {
      "anonymous": false,
      "inputs": [],
      "name": "EIP712DomainChanged",
      "type": "event"
    },
    {
      "anonymous": false,
      "inputs": [
        {
          "indexed": true,
          "internalType": "address",
          "name": "previousOwner",
          "type": "address"
        },
        {
          "indexed": true,
          "internalType": "address",
          "name": "newOwner",
          "type": "address"
        }
      ],
      "name": "OwnershipTransferStarted",
      "type": "event"
    },
    {
      "anonymous": false,
      "inputs": [
        {
          "indexed": true,
          "internalType": "address",
          "name": "previousOwner",
          "type": "address"
        },
        {
          "indexed": true,
          "internalType": "address",
          "name": "newOwner",
          "type": "address"
        }
      ],
      "name": "OwnershipTransferred",
      "type": "event"
    },
    {
      "anonymous": false,
      "inputs": [
        {
          "indexed": false,
          "internalType": "uint256",
          "name": "minDeposit",
          "type": "uint256"
        },
        {
          "indexed": false,
          "internalType": "uint256",
          "name": "maxDeposit",
          "type": "uint256"
        },
        {
          "indexed": false,
          "internalType": "uint256",
          "name": "refundTimeout",
          "type": "uint256"
        }
      ],
      "name": "ParamsUpdated",
      "type": "event"
    },
    {
      "anonymous": false,
      "inputs": [
        {
          "indexed": true,
          "internalType": "uint256",
          "name": "sessionId",
          "type": "uint256"
        },
        {
          "indexed": false,
          "internalType": "uint256",
          "name": "amount",
          "type": "uint256"
        }
      ],
      "name": "Refunded",
      "type": "event"
    },
    {
      "anonymous": false,
      "inputs": [
        {
          "indexed": true,
          "internalType": "uint256",
          "name": "sessionId",
          "type": "uint256"
        },
        {
          "indexed": false,
          "internalType": "address",
          "name": "driver",
          "type": "address"
        },
        {
          "indexed": false,
          "internalType": "address",
          "name": "sponsor",
          "type": "address"
        },
        {
          "indexed": false,
          "internalType": "bytes32",
          "name": "vehicleHash",
          "type": "bytes32"
        },
        {
          "indexed": false,
          "internalType": "uint256",
          "name": "chargerId",
          "type": "uint256"
        },
        {
          "indexed": false,
          "internalType": "uint256",
          "name": "initialDeposit",
          "type": "uint256"
        }
      ],
      "name": "SessionCreated",
      "type": "event"
    },
    {
      "anonymous": false,
      "inputs": [
        {
          "indexed": true,
          "internalType": "uint256",
          "name": "sessionId",
          "type": "uint256"
        },
        {
          "indexed": false,
          "internalType": "uint256",
          "name": "driverAmount",
          "type": "uint256"
        },
        {
          "indexed": false,
          "internalType": "uint256",
          "name": "chargerAmount",
          "type": "uint256"
        }
      ],
      "name": "Settled",
      "type": "event"
    },
    {
      "anonymous": false,
      "inputs": [
        {
          "indexed": true,
          "internalType": "address",
          "name": "driver",
          "type": "address"
        },
        {
          "indexed": true,
          "internalType": "uint256",
          "name": "chargerId",
          "type": "uint256"
        },
        {
          "indexed": false,
          "internalType": "bool",
          "name": "trusted",
          "type": "bool"
        }
      ],
      "name": "TrustedChargerSet",
      "type": "event"
    },
    {
      "inputs": [],
      "name": "acceptOwnership",
      "outputs": [],
      "stateMutability": "nonpayable",
      "type": "function"
    },
    {
      "inputs": [
        {
          "internalType": "uint256",
          "name": "sessionId",
          "type": "uint256"
        },
        {
          "internalType": "uint256",
          "name": "amount",
          "type": "uint256"
        }
      ],
      "name": "addDeposit",
      "outputs": [],
      "stateMutability": "nonpayable",
      "type": "function"
    },
    {
      "inputs": [],
      "name": "chargerRegistry",
      "outputs": [
        {
          "internalType": "contract IChargerRegistry",
          "name": "",
          "type": "address"
        }
      ],
      "stateMutability": "view",
      "type": "function"
    },
    {
      "inputs": [
        {
          "internalType": "bytes32",
          "name": "vehicleHash",
          "type": "bytes32"
        },
        {
          "internalType": "uint256",
          "name": "chargerId",
          "type": "uint256"
        },
        {
          "internalType": "bytes32",
          "name": "sessionSalt",
          "type": "bytes32"
        },
        {
          "internalType": "uint256",
          "name": "initialDeposit",
          "type": "uint256"
        },
        {
          "internalType": "address",
          "name": "sponsorOrZero",
          "type": "address"
        },
        {
          "internalType": "bool",
          "name": "usePermit",
          "type": "bool"
        },
        {
          "components": [
            {
              "internalType": "uint256",
              "name": "value",
              "type": "uint256"
            },
            {
              "internalType": "uint256",
              "name": "deadline",
              "type": "uint256"
            },
            {
              "internalType": "uint8",
              "name": "v",
              "type": "uint8"
            },
            {
              "internalType": "bytes32",
              "name": "r",
              "type": "bytes32"
            },
            {
              "internalType": "bytes32",
              "name": "s",
              "type": "bytes32"
            }
          ],
          "internalType": "struct PlugAndChargeCore.PermitData",
          "name": "permit",
          "type": "tuple"
        }
      ],
      "name": "createSession",
      "outputs": [],
      "stateMutability": "nonpayable",
      "type": "function"
    },
    {
      "inputs": [
        {
          "internalType": "bytes32",
          "name": "vehicleHash",
          "type": "bytes32"
        },
        {
          "internalType": "uint256",
          "name": "chargerId",
          "type": "uint256"
        },
        {
          "internalType": "bytes32",
          "name": "sessionSalt",
          "type": "bytes32"
        },
        {
          "internalType": "address",
          "name": "payer",
          "type": "address"
        },
        {
          "internalType": "uint256",
          "name": "initialDeposit",
          "type": "uint256"
        },
        {
          "internalType": "bool",
          "name": "usePermit",
          "type": "bool"
        },
        {
          "components": [
            {
              "internalType": "uint256",
              "name": "value",
              "type": "uint256"
            },
            {
              "internalType": "uint256",
              "name": "deadline",
              "type": "uint256"
            },
            {
              "internalType": "uint8",
              "name": "v",
              "type": "uint8"
            },
            {
              "internalType": "bytes32",
              "name": "r",
              "type": "bytes32"
            },
            {
              "internalType": "bytes32",
              "name": "s",
              "type": "bytes32"
            }
          ],
          "internalType": "struct PlugAndChargeCore.PermitData",
          "name": "permit",
          "type": "tuple"
        }
      ],
      "name": "createSessionByCharger",
      "outputs": [],
      "stateMutability": "nonpayable",
      "type": "function"
    },
    {
      "inputs": [
        {
          "internalType": "bytes32",
          "name": "vehicleHash",
          "type": "bytes32"
        },
        {
          "internalType": "uint256",
          "name": "chargerId",
          "type": "uint256"
        },
        {
          "internalType": "bytes32",
          "name": "sessionSalt",
          "type": "bytes32"
        },
        {
          "internalType": "address",
          "name": "payer",
          "type": "address"
        },
        {
          "internalType": "uint256",
          "name": "initialDeposit",
          "type": "uint256"
        },
        {
          "internalType": "bool",
          "name": "usePermit",
          "type": "bool"
        },
        {
          "components": [
            {
              "internalType": "uint256",
              "name": "value",
              "type": "uint256"
            },
            {
              "internalType": "uint256",
              "name": "deadline",
              "type": "uint256"
            },
            {
              "internalType": "uint8",
              "name": "v",
              "type": "uint8"
            },
            {
              "internalType": "bytes32",
              "name": "r",
              "type": "bytes32"
            },
            {
              "internalType": "bytes32",
              "name": "s",
              "type": "bytes32"
            }
          ],
          "internalType": "struct PlugAndChargeCore.PermitData",
          "name": "permit",
          "type": "tuple"
        }
      ],
      "name": "createSessionGuestByCharger",
      "outputs": [],
      "stateMutability": "nonpayable",
      "type": "function"
    },
    {
      "inputs": [
        {
          "internalType": "uint256",
          "name": "sessionId",
          "type": "uint256"
        },
        {
          "internalType": "bytes32",
          "name": "reasonHash",
          "type": "bytes32"
        },
        {
          "internalType": "bytes",
          "name": "sig",
          "type": "bytes"
        }
      ],
      "name": "dispute",
      "outputs": [],
      "stateMutability": "nonpayable",
      "type": "function"
    },
    {
      "inputs": [],
      "name": "domainSeparator",
      "outputs": [
        {
          "internalType": "bytes32",
          "name": "",
          "type": "bytes32"
        }
      ],
      "stateMutability": "view",
      "type": "function"
    },
    {
      "inputs": [],
      "name": "eip712Domain",
      "outputs": [
        {
          "internalType": "bytes1",
          "name": "fields",
          "type": "bytes1"
        },
        {
          "internalType": "string",
          "name": "name",
          "type": "string"
        },
        {
          "internalType": "string",
          "name": "version",
          "type": "string"
        },
        {
          "internalType": "uint256",
          "name": "chainId",
          "type": "uint256"
        },
        {
          "internalType": "address",
          "name": "verifyingContract",
          "type": "address"
        },
        {
          "internalType": "bytes32",
          "name": "salt",
          "type": "bytes32"
        },
        {
          "internalType": "uint256[]",
          "name": "extensions",
          "type": "uint256[]"
        }
      ],
      "stateMutability": "view",
      "type": "function"
    },
    {
      "inputs": [
        {
          "internalType": "uint256",
          "name": "sessionId",
          "type": "uint256"
        },
        {
          "internalType": "uint256",
          "name": "amountC",
          "type": "uint256"
        }
      ],
      "name": "endAndPropose",
      "outputs": [],
      "stateMutability": "nonpayable",
      "type": "function"
    },
    {
      "inputs": [
        {
          "internalType": "uint256",
          "name": "sessionId",
          "type": "uint256"
        }
      ],
      "name": "escrowBalance",
      "outputs": [
        {
          "internalType": "uint256",
          "name": "",
          "type": "uint256"
        }
      ],
      "stateMutability": "view",
      "type": "function"
    },
    {
      "inputs": [
        {
          "internalType": "uint256",
          "name": "sessionId",
          "type": "uint256"
        }
      ],
      "name": "finalizeIfNoDispute",
      "outputs": [],
      "stateMutability": "nonpayable",
      "type": "function"
    },
    {
      "inputs": [
        {
          "internalType": "uint256",
          "name": "sessionId",
          "type": "uint256"
        }
      ],
      "name": "getSession",
      "outputs": [
        {
          "components": [
            {
              "internalType": "address",
              "name": "driver",
              "type": "address"
            },
            {
              "internalType": "address",
              "name": "sponsor",
              "type": "address"
            },
            {
              "internalType": "bytes32",
              "name": "vehicleHash",
              "type": "bytes32"
            },
            {
              "internalType": "uint256",
              "name": "chargerId",
              "type": "uint256"
            },
            {
              "internalType": "bytes32",
              "name": "commitment",
              "type": "bytes32"
            },
            {
              "internalType": "uint256",
              "name": "reserved",
              "type": "uint256"
            },
            {
              "internalType": "uint256",
              "name": "proposed",
              "type": "uint256"
            },
            {
              "internalType": "uint64",
              "name": "startTs",
              "type": "uint64"
            },
            {
              "internalType": "uint64",
              "name": "endTs",
              "type": "uint64"
            },
            {
              "internalType": "uint64",
              "name": "proposeTs",
              "type": "uint64"
            },
            {
              "internalType": "uint8",
              "name": "state",
              "type": "uint8"
            }
          ],
          "internalType": "struct PlugAndChargeCore.Session",
          "name": "",
          "type": "tuple"
        }
      ],
      "stateMutability": "view",
      "type": "function"
    },
    {
      "inputs": [],
      "name": "maxDeposit",
      "outputs": [
        {
          "internalType": "uint256",
          "name": "",
          "type": "uint256"
        }
      ],
      "stateMutability": "view",
      "type": "function"
    },
    {
      "inputs": [],
      "name": "minDeposit",
      "outputs": [
        {
          "internalType": "uint256",
          "name": "",
          "type": "uint256"
        }
      ],
      "stateMutability": "view",
      "type": "function"
    },
    {
      "inputs": [],
      "name": "owner",
      "outputs": [
        {
          "internalType": "address",
          "name": "",
          "type": "address"
        }
      ],
      "stateMutability": "view",
      "type": "function"
    },
    {
      "inputs": [],
      "name": "pendingOwner",
      "outputs": [
        {
          "internalType": "address",
          "name": "",
          "type": "address"
        }
      ],
      "stateMutability": "view",
      "type": "function"
    },
    {
      "inputs": [
        {
          "internalType": "uint256",
          "name": "sessionId",
          "type": "uint256"
        }
      ],
      "name": "refundIfStale",
      "outputs": [],
      "stateMutability": "nonpayable",
      "type": "function"
    },
    {
      "inputs": [],
      "name": "refundTimeout",
      "outputs": [
        {
          "internalType": "uint256",
          "name": "",
          "type": "uint256"
        }
      ],
      "stateMutability": "view",
      "type": "function"
    },
    {
      "inputs": [],
      "name": "renounceOwnership",
      "outputs": [],
      "stateMutability": "nonpayable",
      "type": "function"
    },
    {
      "inputs": [
        {
          "internalType": "uint256",
          "name": "sessionId",
          "type": "uint256"
        },
        {
          "internalType": "uint256",
          "name": "driverAmount",
          "type": "uint256"
        },
        {
          "internalType": "uint256",
          "name": "chargerAmount",
          "type": "uint256"
        }
      ],
      "name": "resolveDispute",
      "outputs": [],
      "stateMutability": "nonpayable",
      "type": "function"
    },
    {
      "inputs": [
        {
          "internalType": "address",
          "name": "driver",
          "type": "address"
        },
        {
          "internalType": "uint256",
          "name": "chargerId",
          "type": "uint256"
        },
        {
          "internalType": "bool",
          "name": "trusted",
          "type": "bool"
        }
      ],
      "name": "setTrustedCharger",
      "outputs": [],
      "stateMutability": "nonpayable",
      "type": "function"
    },
    {
      "inputs": [
        {
          "internalType": "address",
          "name": "newOwner",
          "type": "address"
        }
      ],
      "name": "transferOwnership",
      "outputs": [],
      "stateMutability": "nonpayable",
      "type": "function"
    },
    {
      "inputs": [
        {
          "internalType": "address",
          "name": "",
          "type": "address"
        },
        {
          "internalType": "uint256",
          "name": "",
          "type": "uint256"
        }
      ],
      "name": "trustedChargers",
      "outputs": [
        {
          "internalType": "bool",
          "name": "",
          "type": "bool"
        }
      ],
      "stateMutability": "view",
      "type": "function"
    },
    {
      "inputs": [
        {
          "internalType": "uint256",
          "name": "sessionId",
          "type": "uint256"
        },
        {
          "internalType": "uint256",
          "name": "amount",
          "type": "uint256"
        },
        {
          "internalType": "address",
          "name": "payer",
          "type": "address"
        },
        {
          "internalType": "bool",
          "name": "usePermit",
          "type": "bool"
        },
        {
          "components": [
            {
              "internalType": "uint256",
              "name": "value",
              "type": "uint256"
            },
            {
              "internalType": "uint256",
              "name": "deadline",
              "type": "uint256"
            },
            {
              "internalType": "uint8",
              "name": "v",
              "type": "uint8"
            },
            {
              "internalType": "bytes32",
              "name": "r",
              "type": "bytes32"
            },
            {
              "internalType": "bytes32",
              "name": "s",
              "type": "bytes32"
            }
          ],
          "internalType": "struct PlugAndChargeCore.PermitData",
          "name": "permit",
          "type": "tuple"
        }
      ],
      "name": "trustedPullDeposit",
      "outputs": [],
      "stateMutability": "nonpayable",
      "type": "function"
    },
    {
      "inputs": [
        {
          "internalType": "uint256",
          "name": "_minDeposit",
          "type": "uint256"
        },
        {
          "internalType": "uint256",
          "name": "_maxDeposit",
          "type": "uint256"
        },
        {
          "internalType": "uint256",
          "name": "_refundTimeout",
          "type": "uint256"
        }
      ],
      "name": "updateParams",
      "outputs": [],
      "stateMutability": "nonpayable",
      "type": "function"
    },
    {
      "inputs": [],
      "name": "usdc",
      "outputs": [
        {
          "internalType": "contract IERC20",
          "name": "",
          "type": "address"
        }
      ],
      "stateMutability": "view",
      "type": "function"
    },
    {
      "inputs": [],
      "name": "vehicleRegistry",
      "outputs": [
        {
          "internalType": "contract IVehicleRegistry",
          "name": "",
          "type": "address"
        }
      ],
      "stateMutability": "view",
      "type": "function"
    }
  ],
  "transactionHash": "0xd3cd9f08212ba8629c4274c6a038c59c0509e9a17166826ac8be810f63bcf7ce",
  "args": [
    "0x56754Bed020Df0178198E5c3F7CC9fFfa06c0549",
    "0x6472BE14D12aeF0987da866E45132Da68B01384d",
    "0x670cdd7e266bCcFb734BFfc0159441590412ef5a",
    "10000000",
    "1000000000",
    3600,
    "0x8771f22cC8c3d1611B060303C1FA828A9b60D973"
  ],
  "numDeployments": 1,
  "solcInputHash": "3a7117a1b08e4ac95ad2dc34adf28b9f",
  "bytecode": "0x6101c0346200034b576001600160401b03601f6200304f38819003918201601f1916840191908383118584101762000350578160e092869260409586528339810103126200034b5782516001600160a01b03939084811681036200034b5760208201519185831683036200034b57838101519386851685036200034b5760608201519560808301519260c060a082015191015198808a16809a036200034b57835194620000ac8662000366565b60118652602086019970506c7567416e64436861726765436f726560781b8b5285519a620000da8c62000366565b60018c5260208c0190603160f81b82528d1562000333578c9d60018060a01b0319958660015416600155600096828854918216178855167f8be0079c531659141344cd1fd0a4f28419497f9722a3daafe3b4186f6b6457e08780a3600160025562000156620001498a62000382565b9d6101209e8f526200055c565b98610140998a525190209c8d60e0525190209b8c936101009d8e524660a05287519460208601927f8b73c3c69bb8fe3d512ecc4cf759cc79239f7b179b0ffacaa9a75d522b39400f84528987015260608601524660808601523060a086015260a0855260c0850196858810908811176200031f5750858752835190206080523060c0526001600a556101609788526101809889526101a0998a52600581905560068290556007849055845260e08201528901527f0cba168cfa7900657e5f8cc53d6f52ebbfa3a9f568941b465cc4f731c60c95b290606090a151946129279687620007288839608051876126fd015260a051876127c8015260c051876126c7015260e0518761274c0152518661277201525185610cc301525184610cec0152518381816107a401528181610bde0152818161114a015281816112e90152818161138e0152818161174a01528181611786015281816118f20152818161193301528181611ad401528181611c3a01528181611ec401526128390152518281816106c401528181610a98015261107f0152518181816104a00152818161061901528181610b7601528181610ecb0152818161101f015281816116e3015281816118450152611b4f0152f35b634e487b7160e01b81526041600452602490fd5b8751631e4fbdf760e01b815260006004820152602490fd5b600080fd5b634e487b7160e01b600052604160045260246000fd5b604081019081106001600160401b038211176200035057604052565b8051602091908281101562000421575090601f825111620003c05780825192015190808310620003b157501790565b82600019910360031b1b161790565b90604051809263305a27a960e01b82528060048301528251908160248401526000935b82851062000407575050604492506000838284010152601f80199101168101030190fd5b8481018201518686016044015293810193859350620003e3565b6001600160401b03811162000350576003928354926001938481811c9116801562000551575b838210146200053b57601f811162000502575b5081601f84116001146200049957509282939183926000946200048d575b50501b9160001990841b1c191617905560ff90565b01519250388062000478565b919083601f1981168760005284600020946000905b88838310620004e75750505010620004ce575b505050811b01905560ff90565b015160001983861b60f8161c19169055388080620004c1565b858701518855909601959485019487935090810190620004ae565b8560005284601f84600020920160051c820191601f860160051c015b8281106200052e5750506200045a565b600081550185906200051e565b634e487b7160e01b600052602260045260246000fd5b90607f169062000447565b80516020919082811015620005ec575090601f8251116200058b5780825192015190808310620003b157501790565b90604051809263305a27a960e01b82528060048301528251908160248401526000935b828510620005d2575050604492506000838284010152601f80199101168101030190fd5b8481018201518686016044015293810193859350620005ae565b6001600160401b03811162000350576004928354926001938481811c911680156200071c575b838210146200070757601f8111620006ce575b5081601f841160011462000665575092829391839260009462000659575b50501b916000199060031b1c191617905560ff90565b01519250388062000643565b919083601f1981168760005284600020946000905b88838310620006b357505050106200069957505050811b01905560ff90565b015160001960f88460031b161c19169055388080620004c1565b8587015188559096019594850194879350908101906200067a565b8560005284601f84600020920160051c820191601f860160051c015b828110620006fa57505062000625565b60008155018590620006ea565b602286634e487b7160e01b6000525260246000fd5b90607f16906200061256fe6080604052600436101561001257600080fd5b60003560e01c8063063e41d414611f005780631307bddd14611e22578063256fcd9f14611b2057806327c5ac3614611a2d5780632f3d1923146117b55780633e413bee146117705780633fabe74f14611652578063402ff0db146114a957806341b3d1851461148b5780634c9459601461143e5780635eb86e6414610fb95780636083e59a14610f9b578063668733c714610efa5780636bfa0b4414610eb5578063715018a614610e5057806379ba509714610dcc57806384b0196e14610cad5780638da5cb5b14610c845780639880bfe514610ac75780639d56f08514610a82578063b0059048146105e7578063ba4b68c41461043d578063bb099ee31461040e578063d8ce5fa61461022a578063dba267831461020c578063e30c3978146101e3578063f2fde38b146101785763f698da251461015057600080fd5b3461017357600036600319011261017357602061016b6126c4565b604051908152f35b600080fd5b3461017357602036600319011261017357610191611f89565b61019961202e565b60018060a01b0380911690816001600160601b0360a01b6001541617600155600054167f38d16b8cac22d99fc7c124b9cd0de2d3fa1faef420bfe791d8c362d765e22700600080a3005b34610173576000366003190112610173576001546040516001600160a01b039091168152602090f35b34610173576000366003190112610173576020600754604051908152f35b34610173576060366003190112610173576004356044356001600160401b036024358183116101735736602384011215610173578260040135928284116101735736602485830101116101735761027f612545565b84600052600960205260406000206007810194855494600260ff8760c01c16036103fc576102b590600754908760801c16612566565b42116103ea576103649261035b91600060206042604051828101907f7a0f5852caf928f3ee05759a44ef2a2a9ed4c766ef77f5dc8268e7d9be9297d582528d60408201528a60608201526060815261030c81612071565b5190206103176126c4565b906040519161190160f01b835260028301526022820152209280602461033c826122c8565b9661034a60405198896120a7565b828852018387013784010152612573565b9093919361263f565b60018101546001600160a01b03918291821690829082156103e15750505b169116036103cf5760ff60c01b19909116600360c01b179091556040519081527f14688eadf1458bd508651504377eb78d9b941e1fb37f09647ef99cd6ebba44f590602090a26001600255005b60405163110d5a6b60e31b8152600490fd5b54169050610382565b604051634045a93560e11b8152600490fd5b6040516368c4bbff60e01b8152600490fd5b346101735760203660031901126101735760043560005260096020526020600560406000200154604051908152f35b346101735761044b36611f73565b610453612545565b8160005260206009815260406000209160078301600160ff825460c01c16036103fc5760038401546040516331a9108f60e11b815260048101919091526001600160a01b039084816024817f000000000000000000000000000000000000000000000000000000000000000086165afa9081156105db576000916105a6575b501680156105945733036105825760058401548211610570578160067f4a94044960c60788b4119b458f620c34823b41428362ad7c6edb53fb19e20dac9501556105516001600160401b03421661052981846123b6565b825467ffffffffffffffff60801b191660809190911b67ffffffffffffffff60801b16178255565b805460ff60c01b1916600160c11b179055604051908152a26001600255005b6040516341dab9ab60e11b8152600490fd5b604051630471b8bf60e41b8152600490fd5b60405163b93191b360e01b8152600490fd5b90508481813d83116105d4575b6105bd81836120a7565b81010312610173576105ce906122e3565b876104d2565b503d6105b3565b6040513d6000823e3d90fd5b34610173576105f536611f9f565b946106039694929196612545565b6040516331a9108f60e11b8152600481018290527f00000000000000000000000000000000000000000000000000000000000000006001600160a01b031690602081602481855afa9081156105db57600091610a48575b506001600160a01b031680156105945733036105825760c060249160405192838092634a83e9cd60e11b82528660048301525afa80156105db5760a091600091610a1a575b5001511561059457604051638ac9727b60e01b815260048101869052936020856024817f00000000000000000000000000000000000000000000000000000000000000006001600160a01b03165afa9485156105db576000956109de575b506001600160a01b038516156105945760018060a01b038516600052600860205260406000208260005260205260ff60406000205416156109cc57600554831080156109c1575b6109af576000805160206128d28339815191529661098e94604051610792816107846020820194888d876040919493926060820195825260208201520152565b03601f1981018352826120a7565b5190209861099e575b506107c88330837f00000000000000000000000000000000000000000000000000000000000000006123de565b6001600160a01b038181169086160361099857506000945b610959600a54986107f08a6123a7565b600a556040519061080082612042565b60018060a01b038816825260018060a01b038916602083015283604083015284606083015260808201528460a0820152600060c08201526001600160401b03421660e082015260006101008201526000610120820152600161014082015289600052600960205260ff6101406007604060002060018060a01b038551166001600160601b0360a01b9081835416178255600182019060018060a01b036020880151169082541617905560408501516002820155606085015160038201556080850151600482015560a0850151600582015560c0850151600682015501926001600160401b0360e0820151166001600160401b03198554161784556109126001600160401b0361010083015116856123b6565b610120810151845467ffffffffffffffff60801b191660809190911b67ffffffffffffffff60801b161784550151825460ff60c01b1916911660c01b60ff60c01b16179055565b6040519586958691959493909260809360a084019760018060a01b038092168552166020840152604083015260608201520152565b0390a26001600255005b946107e0565b6109a990848361282c565b8861079b565b604051637dbbf54960e01b8152600490fd5b506006548311610744565b604051633818f0e360e11b8152600490fd5b9094506020813d602011610a12575b816109fa602093836120a7565b8101031261017357610a0b906122e3565b93886106fd565b3d91506109ed565b610a3b915060c03d8111610a41575b610a3381836120a7565b810190612312565b8961069f565b503d610a29565b90506020813d602011610a7a575b81610a63602093836120a7565b8101031261017357610a74906122e3565b8961065a565b3d9150610a56565b34610173576000366003190112610173576040517f00000000000000000000000000000000000000000000000000000000000000006001600160a01b03168152602090f35b34610173576020806003193601126101735760043590610ae5612545565b816000526009815260406000209060078201908154600260ff8260c01c16036103fc57600754610b209160801c6001600160401b0316612566565b4211156103ea576006830154600584015491818303928311610c6e5760018501546001600160a01b03949085168015610c6157600390965b015494604051956331a9108f60e11b875260048701528286602481847f0000000000000000000000000000000000000000000000000000000000000000165afa9586156105db57600096610c2a575b5085161561059457610c09847f321f57f44af402708b8b3bad0bd10012cd568d8696946e26edeb86178bb7c27e97604097610c04877f000000000000000000000000000000000000000000000000000000000000000092836127ee565b6127ee565b805460ff60c01b1916600160c21b1790558351928352820152a26001600255005b9095508281813d8311610c5a575b610c4281836120a7565b8101031261017357610c53906122e3565b9488610ba7565b503d610c38565b5060038587541696610b58565b634e487b7160e01b600052601160045260246000fd5b34610173576000366003190112610173576000546040516001600160a01b039091168152602090f35b3461017357600036600319011261017357610ce77f00000000000000000000000000000000000000000000000000000000000000006120c8565b610d107f00000000000000000000000000000000000000000000000000000000000000006121f2565b6040516020808201928284106001600160401b03851117610db6579181610d698594610d5b979660405260008452604051978897600f60f81b895260e0858a015260e0890190611fee565b908782036040890152611fee565b91466060870152306080870152600060a087015285830360c0870152519182815201929160005b828110610d9f57505050500390f35b835185528695509381019392810192600101610d90565b634e487b7160e01b600052604160045260246000fd5b34610173576000366003190112610173576001546001600160a01b033381831603610e38576001600160601b0360a01b8092166001556000549133908316176000553391167f8be0079c531659141344cd1fd0a4f28419497f9722a3daafe3b4186f6b6457e0600080a3005b60405163118cdaa760e01b8152336004820152602490fd5b3461017357600036600319011261017357610e6961202e565b600180546001600160a01b0319908116909155600080549182168155906001600160a01b03167f8be0079c531659141344cd1fd0a4f28419497f9722a3daafe3b4186f6b6457e08280a3005b34610173576000366003190112610173576040517f00000000000000000000000000000000000000000000000000000000000000006001600160a01b03168152602090f35b3461017357606036600319011261017357610f13611f89565b6024359060443590811515809203610173576001600160a01b03169033829003610f895760207fe4b517f7e79956ceb5694a2a504149e0a15636f447a967bc9716b3ae7b542fe69183600052600882526040600020856000528252604060002060ff1981541660ff8316179055604051908152a3005b60405163047c15ff60e21b8152600490fd5b34610173576000366003190112610173576020600654604051908152f35b3461017357610160366003190112610173576084356001600160a01b038116908190036101735760a4359081151582036101735760a03660c319011261017357611001612545565b604051634a83e9cd60e11b815260248035600483015260c0908290817f00000000000000000000000000000000000000000000000000000000000000006001600160a01b03165afa80156105db5760a091600091611420575b5001511561059457604051638ac9727b60e01b815260048035908201526020816024817f00000000000000000000000000000000000000000000000000000000000000006001600160a01b03165afa9081156105db576000916113e6575b506001600160a01b0381161561059457816113de57805b6001600160a01b0381163303610f89576005546064351080156113d1575b6109af57604080516004356020820190815260243592820192909252604435606082015261111e8160808101610784565b519020936112d7575b9061129a6000805160206128d28339815191529361116e61098e946064359030907f00000000000000000000000000000000000000000000000000000000000000006123de565b600a549561117b876123a7565b600a556040519161118b83612042565b60018060a01b0385168352602083015260043560408301526024356060830152608082015260643560a0820152600060c08201526001600160401b03421660e082015260006101008201526000610120820152600161014082015285600052600960205260ff6101406007604060002060018060a01b038551166001600160601b0360a01b9081835416178255600182019060018060a01b036020880151169082541617905560408501516002820155606085015160038201556080850151600482015560a0850151600582015560c0850151600682015501926001600160401b0360e0820151166001600160401b03198554161784556109126001600160401b0361010083015116856123b6565b604080516001600160a01b0392831681526084359092166020830152600435908201526024356060820152606435608082015290819060a0820190565b90610104359160ff83168303610173577f00000000000000000000000000000000000000000000000000000000000000006001600160a01b03163b15610173576000805160206128d28339815191529361116e61129a9261098e9560ff6040519163d505accf60e01b835260018060a01b0384166004840152306024840152606435604484015260e43560648401521660848201526101243560a48201526101443560c482015260008160e4818360018060a01b037f0000000000000000000000000000000000000000000000000000000000000000165af16113c2575b5093945050935050611127565b6113cb9061205e565b886113b5565b50600654606435116110ed565b6084356110cf565b90506020813d602011611418575b81611401602093836120a7565b8101031261017357611412906122e3565b836110b8565b3d91506113f4565b611438915060c03d8111610a4157610a3381836120a7565b8461105a565b34610173576040366003190112610173576001600160a01b0361145f611f89565b1660005260086020526040600020602435600052602052602060ff604060002054166040519015158152f35b34610173576000366003190112610173576020600554604051908152f35b346101735760203660031901126101735760006101406040516114cb81612042565b8281528260208201528260408201528260608201528260808201528260a08201528260c08201528260e0820152826101008201528261012082015201526004356000526009602052610160604060002060ff61014060405161152c81612042565b82600760018060a01b038654169586845260018060a01b036001820154166020850152600281015460408501526003810154606085015260048101546080850152600581015460a0850152600681015460c085015201546001600160401b03811660e08401526001600160401b038160401c166101008401526001600160401b038160801c1661012084015260c01c168282015260405193845260018060a01b03602082015116602085015260408101516040850152606081015160608501526080810151608085015260a081015160a085015260c081015160c08501526001600160401b0360e08201511660e08501526001600160401b03610100820151166101008501526001600160401b0361012082015116610120850152015116610140820152f35b346101735761166036611f59565b9061166961202e565b611671612545565b82600052602090600982526040600020926007840192600360ff855460c01c16036103fc576116a08284612566565b6005860154106109af5760018501546001600160a01b03949085168015610c615760039096015494604051956331a9108f60e11b875260048701528286602481847f0000000000000000000000000000000000000000000000000000000000000000165afa9586156105db57600096610c2a575085161561059457610c09847f321f57f44af402708b8b3bad0bd10012cd568d8696946e26edeb86178bb7c27e97604097610c04877f000000000000000000000000000000000000000000000000000000000000000092836127ee565b34610173576000366003190112610173576040517f00000000000000000000000000000000000000000000000000000000000000006001600160a01b03168152602090f35b3461017357610120366003190112610173576004356044356001600160a01b03602435818316808403610173576064359081151582036101735760a036608319011261017357611803612545565b85600052602093600985526040600020600160ff600783015460c01c16036103fc5760038101546040516331a9108f60e11b81526004810182905287816024817f000000000000000000000000000000000000000000000000000000000000000088165afa80156105db5784916000916119f5575b50168015610594573303610582578282541660005260088752604060002090600052865260ff60406000205416156109cc57600501926118b9858554612566565b600654106109af57611931575b5050611916827f4ea53c221de76f71a871ab45d865687ee33e1a6e565f556bf79765fac135c7359530907f00000000000000000000000000000000000000000000000000000000000000006123de565b611921828254612566565b9055604051908152a26001600255005b7f0000000000000000000000000000000000000000000000000000000000000000169460c4359060ff821680920361017357863b15610173577f4ea53c221de76f71a871ab45d865687ee33e1a6e565f556bf79765fac135c735966000869360e46119169683604051958694859363d505accf60e01b8552600485015230602485015289604485015260a43560648501526084840152833560a48401526101043560c48401525af16119e6575b5095506118c6565b6119ef9061205e565b886119de565b809250898092503d8311611a26575b611a0e81836120a7565b8101031261017357611a2084916122e3565b8b611878565b503d611a04565b3461017357602036600319011261017357600435611a49612545565b8060005260096020526040600020600781018054600160ff8260c01c16036103fc57600754611a80916001600160401b0316612566565b4211156103ea57600582015460018301547fb7c1f9298a18c36af08bd57eabbfbeb04695f24d0438f67614741ec15fb5c4a99360209391611af89184916001600160a01b03908116918215611b175750505b7f00000000000000000000000000000000000000000000000000000000000000006127ee565b805460ff60c01b1916600560c01b179055604051908152a26001600255005b54169050611ad2565b3461017357611b2e36611f9f565b949095611b39612545565b6040516331a9108f60e11b8152600481018390527f00000000000000000000000000000000000000000000000000000000000000006001600160a01b031690602081602481855afa9081156105db57600091611de8575b506001600160a01b031680156105945733036105825760c060249160405192838092634a83e9cd60e11b82528760048301525afa80156105db5760a091600091611dca575b500151156105945760055483108015611dbf575b6109af576000805160206128d28339815191529560a095604051611c288161078460208201948888876040919493926060820195825260208201520152565b51902097611dae575b50611c5e8330867f00000000000000000000000000000000000000000000000000000000000000006123de565b611d83600a5497611c6e896123a7565b600a5560405190611c7e82612042565b600180891b03871682526000602083015283604083015284606083015260808201528487820152600060c08201526001600160401b03421660e082015260006101008201526000610120820152600161014082015288600052600960205260ff610140600760406000206001808c1b038551166001600160601b038c1b908183541617825560018201906001808e1b03602088015116908254161790556040850151600282015560608501516003820155608085015160048201558a850151600582015560c0850151600682015501926001600160401b0360e0820151166001600160401b03198554161784556109126001600160401b0361010083015116856123b6565b60405193600180871b0316845260006020850152604084015260608301526080820152a26001600255005b611db990848661282c565b87611c31565b506006548311611be9565b611de2915060c03d8111610a4157610a3381836120a7565b89611bd5565b90506020813d602011611e1a575b81611e03602093836120a7565b8101031261017357611e14906122e3565b89611b90565b3d9150611df6565b3461017357611e3036611f73565b611e38612545565b8160005260096020526040600020600160ff600783015460c01c16036103fc5760018101546001600160a01b0390819081168015611ef6575b163314159081611ee8575b50610f8957600501611e8f828254612566565b600654106109af57816020916119167f4ea53c221de76f71a871ab45d865687ee33e1a6e565f556bf79765fac135c7359430337f00000000000000000000000000000000000000000000000000000000000000006123de565b905081541633141584611e7c565b5080835416611e71565b34610173577f0cba168cfa7900657e5f8cc53d6f52ebbfa3a9f568941b465cc4f731c60c95b26060611f3136611f59565b90611f3a61202e565b82600555806006558160075560405192835260208301526040820152a1005b606090600319011261017357600435906024359060443590565b6040906003190112610173576004359060243590565b600435906001600160a01b038216820361017357565b610160600319820112610173576004359160243591604435916064356001600160a01b038116810361017357916084359160a43580151581036101735760a0909260c31901126101735760c490565b919082519283825260005b84811061201a575050826000602080949584010152601f8019910116010190565b602081830181015184830182015201611ff9565b6000546001600160a01b03163303610e3857565b61016081019081106001600160401b03821117610db657604052565b6001600160401b038111610db657604052565b608081019081106001600160401b03821117610db657604052565b604081019081106001600160401b03821117610db657604052565b90601f801991011681019081106001600160401b03821117610db657604052565b60ff81146121065760ff811690601f82116120f457604051916120ea8361208c565b8252602082015290565b604051632cd44ac360e21b8152600490fd5b50604051600060035490600182811c908084169384156121e8575b60209485841081146121d457838752869493929181156121b45750600114612155575b5050612152925003826120a7565b90565b9093915060036000527fc2575a0e9e593c00f959f8c92f12db2869c3395a3b0502d05e2516446f71f85b936000915b81831061219c57505061215293508201013880612144565b85548784018501529485019486945091830191612184565b91505061215294925060ff191682840152151560051b8201013880612144565b634e487b7160e01b85526022600452602485fd5b91607f1691612121565b60ff81146122145760ff811690601f82116120f457604051916120ea8361208c565b50604051600060045490600182811c908084169384156122be575b60209485841081146121d457838752869493929181156121b4575060011461225f575050612152925003826120a7565b9093915060046000527f8a35acfbc15ff81a39ae7d344fd709f28e8600b4aa8c65c6b64bfe7fe36bd19b936000915b8183106122a657505061215293508201013880612144565b8554878401850152948501948694509183019161228e565b91607f169161222f565b6001600160401b038111610db657601f01601f191660200190565b51906001600160a01b038216820361017357565b51908160030b820361017357565b5190811515820361017357565b908160c0910312610173576040519060c082018281106001600160401b03821117610db657604052612343816122e3565b8252612351602082016122f7565b6020830152612362604082016122f7565b6040830152606081015163ffffffff81168103610173576060830152608081015161ffff8116810361017357608083015261239f9060a001612305565b60a082015290565b6000198114610c6e5760010190565b9067ffffffffffffffff60401b82549160401b169067ffffffffffffffff60401b1916179055565b6040516323b872dd60e01b60208201526001600160a01b03928316602482015292909116604483015260648083019390935291815260a08101918183106001600160401b03841117610db65761243692604052612438565b565b60018060a01b031690612482600080836020829551910182875af13d156124da573d90612464826122c8565b9161247260405193846120a7565b82523d84602084013e5b846124e2565b80519182151592836124b1575b5050506124995750565b60249060405190635274afe760e01b82526004820152fd5b8293509160209192810103126124d7575060206124ce9101612305565b1538808061248f565b80fd5b60609061247c565b9061250957508051156124f757805190602001fd5b604051630a12f52160e11b8152600490fd5b8151158061253c575b61251a575090565b604051639996b31560e01b81526001600160a01b039091166004820152602490fd5b50803b15612512565b60028054146125545760028055565b604051633ee5aeb560e01b8152600490fd5b91908201809211610c6e57565b81519190604183036125a45761259d92506020820151906060604084015193015160001a906125af565b9192909190565b505060009160029190565b91907f7fffffffffffffffffffffffffffffff5d576e7357a4501ddfe92f46681b20a0841161263357926020929160ff608095604051948552168484015260408301526060820152600092839182805260015afa156126275780516001600160a01b0381161561261e57918190565b50809160019190565b604051903d90823e3d90fd5b50505060009160039190565b60048110156126ae5780612651575050565b6001810361266b5760405163f645eedf60e01b8152600490fd5b6002810361268c5760405163fce698f760e01b815260048101839052602490fd5b6003146126965750565b602490604051906335e2f38360e21b82526004820152fd5b634e487b7160e01b600052602160045260246000fd5b307f00000000000000000000000000000000000000000000000000000000000000006001600160a01b031614806127c5575b1561271f577f000000000000000000000000000000000000000000000000000000000000000090565b60405160208101907f8b73c3c69bb8fe3d512ecc4cf759cc79239f7b179b0ffacaa9a75d522b39400f82527f000000000000000000000000000000000000000000000000000000000000000060408201527f000000000000000000000000000000000000000000000000000000000000000060608201524660808201523060a082015260a0815260c081018181106001600160401b03821117610db65760405251902090565b507f000000000000000000000000000000000000000000000000000000000000000046146126f6565b60405163a9059cbb60e01b60208201526001600160a01b0390921660248301526044808301939093529181526124369161282782612071565b612438565b909160018060a01b0390817f0000000000000000000000000000000000000000000000000000000000000000169260408201359160ff831680930361017357843b15610173576000946080869260e495604051998a98899763d505accf60e01b89521660048801523060248801526044870152602082013560648701526084860152606081013560a4860152013560c48401525af16128c85750565b6124369061205e56febc81e50e0ae66efaeb76eea51222f81a02cbd3494934dc1967523682e2440405a264697066735822122043e1da63484d692e2b42c43413315ff5ea272cc7cf0dd3a108af0905cc66e8cf64736f6c63430008140033",
  "devdoc": {
    "errors": {
      "AddressEmptyCode(address)": [
        {
          "details": "There's no code at `target` (it is not a contract)."
        }
      ],
      "AddressInsufficientBalance(address)": [
        {
          "details": "The ETH balance of the account is not enough to perform the operation."
        }
      ],
      "ECDSAInvalidSignature()": [
        {
          "details": "The signature derives the `address(0)`."
        }
      ],
      "ECDSAInvalidSignatureLength(uint256)": [
        {
          "details": "The signature has an invalid length."
        }
      ],
      "ECDSAInvalidSignatureS(bytes32)": [
        {
          "details": "The signature has an S value that is in the upper half order."
        }
      ],
      "FailedInnerCall()": [
        {
          "details": "A call to an address target failed. The target may have reverted."
        }
      ],
      "OwnableInvalidOwner(address)": [
        {
          "details": "The owner is not a valid owner account. (eg. `address(0)`)"
        }
      ],
      "OwnableUnauthorizedAccount(address)": [
        {
          "details": "The caller account is not authorized to perform an operation."
        }
      ],
      "ReentrancyGuardReentrantCall()": [
        {
          "details": "Unauthorized reentrant call."
        }
      ],
      "SafeERC20FailedOperation(address)": [
        {
          "details": "An operation with an ERC20 token failed."
        }
      ]
    },
    "events": {
      "EIP712DomainChanged()": {
        "details": "MAY be emitted to signal that the domain could have changed."
      }
    },
    "kind": "dev",
    "methods": {
      "acceptOwnership()": {
        "details": "The new owner accepts the ownership transfer."
      },
      "eip712Domain()": {
        "details": "See {IERC-5267}."
      },
      "owner()": {
        "details": "Returns the address of the current owner."
      },
      "pendingOwner()": {
        "details": "Returns the address of the pending owner."
      },
      "renounceOwnership()": {
        "details": "Leaves the contract without owner. It will not be possible to call `onlyOwner` functions. Can only be called by the current owner. NOTE: Renouncing ownership will leave the contract without an owner, thereby disabling any functionality that is only available to the owner."
      },
      "transferOwnership(address)": {
        "details": "Starts the ownership transfer of the contract to a new account. Replaces the pending transfer if there is one. Can only be called by the current owner."
      }
    },
    "version": 1
  },
  "userdoc": {
    "kind": "user",
    "methods": {},
    "version": 1
  },
  "storageLayout": {
    "storage": [
      {
        "astId": 8,
        "contract": "contracts/PlugAndCharge.sol:PlugAndChargeCore",
        "label": "_owner",
        "offset": 0,
        "slot": "0",
        "type": "t_address"
      },
      {
        "astId": 156,
        "contract": "contracts/PlugAndCharge.sol:PlugAndChargeCore",
        "label": "_pendingOwner",
        "offset": 0,
        "slot": "1",
        "type": "t_address"
      },
      {
        "astId": 1856,
        "contract": "contracts/PlugAndCharge.sol:PlugAndChargeCore",
        "label": "_status",
        "offset": 0,
        "slot": "2",
        "type": "t_uint256"
      },
      {
        "astId": 2881,
        "contract": "contracts/PlugAndCharge.sol:PlugAndChargeCore",
        "label": "_nameFallback",
        "offset": 0,
        "slot": "3",
        "type": "t_string_storage"
      },
      {
        "astId": 2883,
        "contract": "contracts/PlugAndCharge.sol:PlugAndChargeCore",
        "label": "_versionFallback",
        "offset": 0,
        "slot": "4",
        "type": "t_string_storage"
      },
      {
        "astId": 4863,
        "contract": "contracts/PlugAndCharge.sol:PlugAndChargeCore",
        "label": "minDeposit",
        "offset": 0,
        "slot": "5",
        "type": "t_uint256"
      },
      {
        "astId": 4865,
        "contract": "contracts/PlugAndCharge.sol:PlugAndChargeCore",
        "label": "maxDeposit",
        "offset": 0,
        "slot": "6",
        "type": "t_uint256"
      },
      {
        "astId": 4867,
        "contract": "contracts/PlugAndCharge.sol:PlugAndChargeCore",
        "label": "refundTimeout",
        "offset": 0,
        "slot": "7",
        "type": "t_uint256"
      },
      {
        "astId": 4873,
        "contract": "contracts/PlugAndCharge.sol:PlugAndChargeCore",
        "label": "trustedChargers",
        "offset": 0,
        "slot": "8",
        "type": "t_mapping(t_address,t_mapping(t_uint256,t_bool))"
      },
      {
        "astId": 4878,
        "contract": "contracts/PlugAndCharge.sol:PlugAndChargeCore",
        "label": "_sessions",
        "offset": 0,
        "slot": "9",
        "type": "t_mapping(t_uint256,t_struct(Session)4909_storage)"
      },
      {
        "astId": 4881,
        "contract": "contracts/PlugAndCharge.sol:PlugAndChargeCore",
        "label": "_nextSessionId",
        "offset": 0,
        "slot": "10",
        "type": "t_uint256"
      }
    ],
    "types": {
      "t_address": {
        "encoding": "inplace",
        "label": "address",
        "numberOfBytes": "20"
      },
      "t_bool": {
        "encoding": "inplace",
        "label": "bool",
        "numberOfBytes": "1"
      },
      "t_bytes32": {
        "encoding": "inplace",
        "label": "bytes32",
        "numberOfBytes": "32"
      },
      "t_mapping(t_address,t_mapping(t_uint256,t_bool))": {
        "encoding": "mapping",
        "key": "t_address",
        "label": "mapping(address => mapping(uint256 => bool))",
        "numberOfBytes": "32",
        "value": "t_mapping(t_uint256,t_bool)"
      },
      "t_mapping(t_uint256,t_bool)": {
        "encoding": "mapping",
        "key": "t_uint256",
        "label": "mapping(uint256 => bool)",
        "numberOfBytes": "32",
        "value": "t_bool"
      },
      "t_mapping(t_uint256,t_struct(Session)4909_storage)": {
        "encoding": "mapping",
        "key": "t_uint256",
        "label": "mapping(uint256 => struct PlugAndChargeCore.Session)",
        "numberOfBytes": "32",
        "value": "t_struct(Session)4909_storage"
      },
      "t_string_storage": {
        "encoding": "bytes",
        "label": "string",
        "numberOfBytes": "32"
      },
      "t_struct(Session)4909_storage": {
        "encoding": "inplace",
        "label": "struct PlugAndChargeCore.Session",
        "members": [
          {
            "astId": 4888,
            "contract": "contracts/PlugAndCharge.sol:PlugAndChargeCore",
            "label": "driver",
            "offset": 0,
            "slot": "0",
            "type": "t_address"
          },
          {
            "astId": 4890,
            "contract": "contracts/PlugAndCharge.sol:PlugAndChargeCore",
            "label": "sponsor",
            "offset": 0,
            "slot": "1",
            "type": "t_address"
          },
          {
            "astId": 4892,
            "contract": "contracts/PlugAndCharge.sol:PlugAndChargeCore",
            "label": "vehicleHash",
            "offset": 0,
            "slot": "2",
            "type": "t_bytes32"
          },
          {
            "astId": 4894,
            "contract": "contracts/PlugAndCharge.sol:PlugAndChargeCore",
            "label": "chargerId",
            "offset": 0,
            "slot": "3",
            "type": "t_uint256"
          },
          {
            "astId": 4896,
            "contract": "contracts/PlugAndCharge.sol:PlugAndChargeCore",
            "label": "commitment",
            "offset": 0,
            "slot": "4",
            "type": "t_bytes32"
          },
          {
            "astId": 4898,
            "contract": "contracts/PlugAndCharge.sol:PlugAndChargeCore",
            "label": "reserved",
            "offset": 0,
            "slot": "5",
            "type": "t_uint256"
          },
          {
            "astId": 4900,
            "contract": "contracts/PlugAndCharge.sol:PlugAndChargeCore",
            "label": "proposed",
            "offset": 0,
            "slot": "6",
            "type": "t_uint256"
          },
          {
            "astId": 4902,
            "contract": "contracts/PlugAndCharge.sol:PlugAndChargeCore",
            "label": "startTs",
            "offset": 0,
            "slot": "7",
            "type": "t_uint64"
          },
          {
            "astId": 4904,
            "contract": "contracts/PlugAndCharge.sol:PlugAndChargeCore",
            "label": "endTs",
            "offset": 8,
            "slot": "7",
            "type": "t_uint64"
          },
          {
            "astId": 4906,
            "contract": "contracts/PlugAndCharge.sol:PlugAndChargeCore",
            "label": "proposeTs",
            "offset": 16,
            "slot": "7",
            "type": "t_uint64"
          },
          {
            "astId": 4908,
            "contract": "contracts/PlugAndCharge.sol:PlugAndChargeCore",
            "label": "state",
            "offset": 24,
            "slot": "7",
            "type": "t_uint8"
          }
        ],
        "numberOfBytes": "256"
      },
      "t_uint256": {
        "encoding": "inplace",
        "label": "uint256",
        "numberOfBytes": "32"
      },
      "t_uint64": {
        "encoding": "inplace",
        "label": "uint64",
        "numberOfBytes": "8"
      },
      "t_uint8": {
        "encoding": "inplace",
        "label": "uint8",
        "numberOfBytes": "1"
      }
    }
  }
}