{
  "address": "0x6472BE14D12aeF0987da866E45132Da68B01384d",
  "abi": [
    {
      "inputs": [
        {
          "internalType": "address",
          "name": "initialOwner",
          "type": "address"
        }
      ],
      "stateMutability": "nonpayable",
      "type": "constructor"
    },
    {
      "inputs": [],
      "name": "ErrAlreadyRegistered",
      "type": "error"
    },
    {
      "inputs": [],
      "name": "ErrChipAlreadyRegistered",
      "type": "error"
    },
    {
      "inputs": [],
      "name": "ErrNotDriver",
      "type": "error"
    },
    {
      "inputs": [],
      "name": "ErrNotRegistered",
      "type": "error"
    },
    {
      "inputs": [
        {
          "internalType": "address",
          "name": "owner",
          "type": "address"
        }
      ],
      "name": "OwnableInvalidOwner",
      "type": "error"
    },
    {
      "inputs": [
        {
          "internalType": "address",
          "name": "account",
          "type": "address"
        }
      ],
      "name": "OwnableUnauthorizedAccount",
      "type": "error"
    },
    {
      "anonymous": false,
      "inputs": [
        {
          "indexed": true,
          "internalType": "address",
          "name": "previousOwner",
          "type": "address"
        },
        {
          "indexed": true,
          "internalType": "address",
          "name": "newOwner",
          "type": "address"
        }
      ],
      "name": "OwnershipTransferStarted",
      "type": "event"
    },
    {
      "anonymous": false,
      "inputs": [
        {
          "indexed": true,
          "internalType": "address",
          "name": "previousOwner",
          "type": "address"
        },
        {
          "indexed": true,
          "internalType": "address",
          "name": "newOwner",
          "type": "address"
        }
      ],
      "name": "OwnershipTransferred",
      "type": "event"
    },
    {
      "anonymous": false,
      "inputs": [
        {
          "indexed": true,
          "internalType": "bytes32",
          "name": "vehicleHash",
          "type": "bytes32"
        },
        {
          "indexed": true,
          "internalType": "address",
          "name": "driver",
          "type": "address"
        },
        {
          "indexed": false,
          "internalType": "bytes32",
          "name": "chipId",
          "type": "bytes32"
        },
        {
          "indexed": false,
          "internalType": "bool",
          "name": "iso15118Enabled",
          "type": "bool"
        }
      ],
      "name": "VehicleRegistered",
      "type": "event"
    },
    {
      "anonymous": false,
      "inputs": [
        {
          "indexed": true,
          "internalType": "bytes32",
          "name": "vehicleHash",
          "type": "bytes32"
        },
        {
          "indexed": true,
          "internalType": "address",
          "name": "driver",
          "type": "address"
        }
      ],
      "name": "VehicleUnregistered",
      "type": "event"
    },
    {
      "inputs": [],
      "name": "acceptOwnership",
      "outputs": [],
      "stateMutability": "nonpayable",
      "type": "function"
    },
    {
      "inputs": [
        {
          "internalType": "bytes32",
          "name": "vehicleHash",
          "type": "bytes32"
        }
      ],
      "name": "getIso15118Identifier",
      "outputs": [
        {
          "internalType": "string",
          "name": "",
          "type": "string"
        }
      ],
      "stateMutability": "view",
      "type": "function"
    },
    {
      "inputs": [
        {
          "internalType": "bytes32",
          "name": "vehicleHash",
          "type": "bytes32"
        }
      ],
      "name": "getPublicKey",
      "outputs": [
        {
          "internalType": "bytes32",
          "name": "",
          "type": "bytes32"
        }
      ],
      "stateMutability": "view",
      "type": "function"
    },
    {
      "inputs": [
        {
          "internalType": "bytes32",
          "name": "chipId",
          "type": "bytes32"
        }
      ],
      "name": "getVehicleByChip",
      "outputs": [
        {
          "internalType": "bytes32",
          "name": "",
          "type": "bytes32"
        }
      ],
      "stateMutability": "view",
      "type": "function"
    },
    {
      "inputs": [
        {
          "internalType": "string",
          "name": "iso15118Identifier",
          "type": "string"
        }
      ],
      "name": "getVehicleByIso15118Identifier",
      "outputs": [
        {
          "internalType": "bytes32",
          "name": "",
          "type": "bytes32"
        }
      ],
      "stateMutability": "view",
      "type": "function"
    },
    {
      "inputs": [
        {
          "internalType": "bytes32",
          "name": "vehicleHash",
          "type": "bytes32"
        }
      ],
      "name": "isIso15118Enabled",
      "outputs": [
        {
          "internalType": "bool",
          "name": "",
          "type": "bool"
        }
      ],
      "stateMutability": "view",
      "type": "function"
    },
    {
      "inputs": [],
      "name": "owner",
      "outputs": [
        {
          "internalType": "address",
          "name": "",
          "type": "address"
        }
      ],
      "stateMutability": "view",
      "type": "function"
    },
    {
      "inputs": [
        {
          "internalType": "bytes32",
          "name": "vehicleHash",
          "type": "bytes32"
        }
      ],
      "name": "ownerOfVehicle",
      "outputs": [
        {
          "internalType": "address",
          "name": "",
          "type": "address"
        }
      ],
      "stateMutability": "view",
      "type": "function"
    },
    {
      "inputs": [],
      "name": "pendingOwner",
      "outputs": [
        {
          "internalType": "address",
          "name": "",
          "type": "address"
        }
      ],
      "stateMutability": "view",
      "type": "function"
    },
    {
      "inputs": [
        {
          "internalType": "bytes32",
          "name": "vehicleHash",
          "type": "bytes32"
        },
        {
          "internalType": "bytes32",
          "name": "chipId",
          "type": "bytes32"
        },
        {
          "internalType": "bool",
          "name": "iso15118Enabled",
          "type": "bool"
        },
        {
          "internalType": "bytes32",
          "name": "publicKeyHash",
          "type": "bytes32"
        },
        {
          "internalType": "string",
          "name": "iso15118Identifier",
          "type": "string"
        }
      ],
      "name": "registerVehicle",
      "outputs": [],
      "stateMutability": "nonpayable",
      "type": "function"
    },
    {
      "inputs": [],
      "name": "renounceOwnership",
      "outputs": [],
      "stateMutability": "nonpayable",
      "type": "function"
    },
    {
      "inputs": [
        {
          "internalType": "address",
          "name": "newOwner",
          "type": "address"
        }
      ],
      "name": "transferOwnership",
      "outputs": [],
      "stateMutability": "nonpayable",
      "type": "function"
    },
    {
      "inputs": [
        {
          "internalType": "bytes32",
          "name": "vehicleHash",
          "type": "bytes32"
        }
      ],
      "name": "unregisterVehicle",
      "outputs": [],
      "stateMutability": "nonpayable",
      "type": "function"
    }
  ],
  "transactionHash": "0xd16b9be0f0c2252ca909ccf200fe9dba1149d4ee2a5e8ccb23a82fd508fee81f",
  "args": [
    "0x8771f22cC8c3d1611B060303C1FA828A9b60D973"
  ],
  "numDeployments": 1,
  "solcInputHash": "3a7117a1b08e4ac95ad2dc34adf28b9f",
  "bytecode": "0x6080346100c457601f6109b838819003918201601f19168301916001600160401b038311848410176100c9578084926020946040528339810103126100c457516001600160a01b0390818116908190036100c45780156100ab5760018060a01b0319918260015416600155816000549384161760005560405192167f8be0079c531659141344cd1fd0a4f28419497f9722a3daafe3b4186f6b6457e0600080a36108d890816100e08239f35b604051631e4fbdf760e01b815260006004820152602490fd5b600080fd5b634e487b7160e01b600052604160045260246000fdfe608060408181526004908136101561001657600080fd5b600092833560e01c9081633e9afaae1461075857508063708d39961461066d578063715018a61461060857806379ba5097146105875780638ac9727b146105545780638da5cb5b1461052c578063b1c551ca14610504578063bc63af1a146104a4578063be6adde21461047c578063e30c397814610453578063e5f99204146101bb578063f2fde38b1461014c5763f8523351146100b357600080fd5b346101485760203660031901126101485781358084526002602052818420546001600160a01b031692909190831561013a5733840361012c57508184526002602052832080546001600160a01b03191690557fe9b4dd735ff047d802eda986a0e7c33018cf3c0a5949000dcbcb0e662d6faf8c8380a380f35b905163047c15ff60e21b8152fd5b905163b93191b360e01b8152fd5b8280fd5b5050346101b75760203660031901126101b757356001600160a01b03818116918290036101485761017b61083c565b600180546001600160a01b031916831790558254167f38d16b8cac22d99fc7c124b9cd0de2d3fa1faef420bfe791d8c362d765e227008380a380f35b5080fd5b5090346101485760a0366003190112610148578035906024359260443580151580910361044f5767ffffffffffffffff60843581811161044b5761020290369086016107e0565b85885260026020908152848920549092906001600160a01b031661043b57878952600383528489205461042b5786895260028352848920336bffffffffffffffffffffffff60a01b8254161790558789526003835286858a205586895285835284892060ff1981541660ff861617905560058352606435858a205560068352848920958251918211610418575090869161029c8754610868565b601f81116103c8575b5083601f82116001146103405796818593927fe767c37e81a9e285dc0df55b2adf7615167e4ffc2db91f3577a4c88148e19f8c998d91610335575b508160011b916000199060031b1c19161790555b8051908161030f575b5050505082519586528501523393a380f35b81610321849389518096819501610785565b8101600781520301902055848138806102fd565b9050830151386102e0565b9690601f198116828c52858c20908c5b8181106103ae5750916001917fe767c37e81a9e285dc0df55b2adf7615167e4ffc2db91f3577a4c88148e19f8c9a828997969510610395575b5050811b0190556102f4565b85015160001960f88460031b161c191690553880610389565b858b01518355998701998b96506001909201918701610350565b90919250868a52838a20601f830160051c81019185841061040e575b90601f8a959493920160051c01905b81811061040057506102a5565b8b81558994506001016103f3565b90915081906103e4565b634e487b7160e01b8a5260419052602489fd5b845163143f0fc760e11b81528690fd5b845163097e743960e31b81528690fd5b8780fd5b8580fd5b8382346101b757816003193601126101b75760015490516001600160a01b039091168152602090f35b5090346101485760203660031901126101485760209282913581526003845220549051908152f35b5082346105015760203660031901126105015782359067ffffffffffffffff8211610501575060206104dd81946104ef933691016107e0565b81845193828580945193849201610785565b81016007815203019020549051908152f35b80fd5b5090346101485760203660031901126101485760209282913581526005845220549051908152f35b8382346101b757816003193601126101b757905490516001600160a01b039091168152602090f35b5090346101485760203660031901126101485735825260026020908152918190205490516001600160a01b039091168152f35b5034610148578260031936011261014857600154916001600160a01b039133838516036105f15750506001600160a01b031991821660015582543392811683178455167f8be0079c531659141344cd1fd0a4f28419497f9722a3daafe3b4186f6b6457e08380a380f35b60249250519063118cdaa760e01b82523390820152fd5b833461050157806003193601126105015761062161083c565b600180546001600160a01b03199081169091558154908116825581906001600160a01b03167f8be0079c531659141344cd1fd0a4f28419497f9722a3daafe3b4186f6b6457e08280a380f35b50823461050157602092836003193601126101b7573581526006835281812083835183819490845461069e81610868565b9182855285850196600192838116908160001461073557506001146106f8575b505050506106ce925003836107a8565b6106ea8351948593818552519283809286015285850190610785565b601f01601f19168101030190f35b815285812095935091905b81831061071d5750889450508201016106ce8880806106be565b85548884018501529485019487945091830191610703565b93505050506106ce94925060ff19168552151560051b82010186928880806106be565b929050346107815760203660031901126107815780358452602090815292205460ff1615158152f35b8380fd5b60005b8381106107985750506000910152565b8181015183820152602001610788565b90601f8019910116810190811067ffffffffffffffff8211176107ca57604052565b634e487b7160e01b600052604160045260246000fd5b81601f820112156108375780359067ffffffffffffffff82116107ca5760405192610815601f8401601f1916602001856107a8565b8284526020838301011161083757816000926020809301838601378301015290565b600080fd5b6000546001600160a01b0316330361085057565b60405163118cdaa760e01b8152336004820152602490fd5b90600182811c92168015610898575b602083101461088257565b634e487b7160e01b600052602260045260246000fd5b91607f169161087756fea2646970667358221220b09d8da291a27780a826c39c77617d0ec120a2a18834099e4e5aeee8f29ab8ad64736f6c63430008140033",
  "devdoc": {
    "errors": {
      "OwnableInvalidOwner(address)": [
        {
          "details": "The owner is not a valid owner account. (eg. `address(0)`)"
        }
      ],
      "OwnableUnauthorizedAccount(address)": [
        {
          "details": "The caller account is not authorized to perform an operation."
        }
      ]
    },
    "kind": "dev",
    "methods": {
      "acceptOwnership()": {
        "details": "The new owner accepts the ownership transfer."
      },
      "owner()": {
        "details": "Returns the address of the current owner."
      },
      "pendingOwner()": {
        "details": "Returns the address of the pending owner."
      },
      "renounceOwnership()": {
        "details": "Leaves the contract without owner. It will not be possible to call `onlyOwner` functions. Can only be called by the current owner. NOTE: Renouncing ownership will leave the contract without an owner, thereby disabling any functionality that is only available to the owner."
      },
      "transferOwnership(address)": {
        "details": "Starts the ownership transfer of the contract to a new account. Replaces the pending transfer if there is one. Can only be called by the current owner."
      }
    },
    "version": 1
  },
  "userdoc": {
    "kind": "user",
    "methods": {
      "getIso15118Identifier(bytes32)": {
        "notice": "Returns ISO 15118 identifier for a vehicle"
      },
      "getPublicKey(bytes32)": {
        "notice": "Returns public key hash for a vehicle"
      },
      "getVehicleByChip(bytes32)": {
        "notice": "Returns vehicle hash by chip ID"
      },
      "getVehicleByIso15118Identifier(string)": {
        "notice": "Returns vehicle hash for a given ISO 15118 identifier"
      },
      "isIso15118Enabled(bytes32)": {
        "notice": "Returns if ISO 15118 is enabled for a vehicle"
      },
      "ownerOfVehicle(bytes32)": {
        "notice": "Returns the owner (driver) of a vehicle, or address(0) if not registered"
      },
      "registerVehicle(bytes32,bytes32,bool,bytes32,string)": {
        "notice": "Registers a vehicle with chip and ISO 15118 support"
      },
      "unregisterVehicle(bytes32)": {
        "notice": "Unregisters a vehicle, only current driver"
      }
    },
    "version": 1
  },
  "storageLayout": {
    "storage": [
      {
        "astId": 8,
        "contract": "contracts/VehicleRegistry.sol:VehicleRegistry",
        "label": "_owner",
        "offset": 0,
        "slot": "0",
        "type": "t_address"
      },
      {
        "astId": 156,
        "contract": "contracts/VehicleRegistry.sol:VehicleRegistry",
        "label": "_pendingOwner",
        "offset": 0,
        "slot": "1",
        "type": "t_address"
      },
      {
        "astId": 6357,
        "contract": "contracts/VehicleRegistry.sol:VehicleRegistry",
        "label": "_vehicleOwners",
        "offset": 0,
        "slot": "2",
        "type": "t_mapping(t_bytes32,t_address)"
      },
      {
        "astId": 6361,
        "contract": "contracts/VehicleRegistry.sol:VehicleRegistry",
        "label": "_chipToVehicle",
        "offset": 0,
        "slot": "3",
        "type": "t_mapping(t_bytes32,t_bytes32)"
      },
      {
        "astId": 6365,
        "contract": "contracts/VehicleRegistry.sol:VehicleRegistry",
        "label": "_iso15118Enabled",
        "offset": 0,
        "slot": "4",
        "type": "t_mapping(t_bytes32,t_bool)"
      },
      {
        "astId": 6369,
        "contract": "contracts/VehicleRegistry.sol:VehicleRegistry",
        "label": "_publicKeys",
        "offset": 0,
        "slot": "5",
        "type": "t_mapping(t_bytes32,t_bytes32)"
      },
      {
        "astId": 6373,
        "contract": "contracts/VehicleRegistry.sol:VehicleRegistry",
        "label": "_iso15118Identifiers",
        "offset": 0,
        "slot": "6",
        "type": "t_mapping(t_bytes32,t_string_storage)"
      },
      {
        "astId": 6377,
        "contract": "contracts/VehicleRegistry.sol:VehicleRegistry",
        "label": "_iso15118ToVehicle",
        "offset": 0,
        "slot": "7",
        "type": "t_mapping(t_string_memory_ptr,t_bytes32)"
      }
    ],
    "types": {
      "t_address": {
        "encoding": "inplace",
        "label": "address",
        "numberOfBytes": "20"
      },
      "t_bool": {
        "encoding": "inplace",
        "label": "bool",
        "numberOfBytes": "1"
      },
      "t_bytes32": {
        "encoding": "inplace",
        "label": "bytes32",
        "numberOfBytes": "32"
      },
      "t_mapping(t_bytes32,t_address)": {
        "encoding": "mapping",
        "key": "t_bytes32",
        "label": "mapping(bytes32 => address)",
        "numberOfBytes": "32",
        "value": "t_address"
      },
      "t_mapping(t_bytes32,t_bool)": {
        "encoding": "mapping",
        "key": "t_bytes32",
        "label": "mapping(bytes32 => bool)",
        "numberOfBytes": "32",
        "value": "t_bool"
      },
      "t_mapping(t_bytes32,t_bytes32)": {
        "encoding": "mapping",
        "key": "t_bytes32",
        "label": "mapping(bytes32 => bytes32)",
        "numberOfBytes": "32",
        "value": "t_bytes32"
      },
      "t_mapping(t_bytes32,t_string_storage)": {
        "encoding": "mapping",
        "key": "t_bytes32",
        "label": "mapping(bytes32 => string)",
        "numberOfBytes": "32",
        "value": "t_string_storage"
      },
      "t_mapping(t_string_memory_ptr,t_bytes32)": {
        "encoding": "mapping",
        "key": "t_string_memory_ptr",
        "label": "mapping(string => bytes32)",
        "numberOfBytes": "32",
        "value": "t_bytes32"
      },
      "t_string_memory_ptr": {
        "encoding": "bytes",
        "label": "string",
        "numberOfBytes": "32"
      },
      "t_string_storage": {
        "encoding": "bytes",
        "label": "string",
        "numberOfBytes": "32"
      }
    }
  }
}